:02000000D02806
:10000800DF00030E8301AC000A08AD008A010C1C56
:100018000F28A00A0C100B1C12280B102D088A00A0
:0A0028002C0E8300DF0E5F0E0900AE
:10003200831203132230DC00D801D901DA01DB017B
:10004200DC0303194F280310DB0CDA0CD90CD80C93
:10005200D30CD20CD10CD00C031C2128DC030319C5
:1000620041285408D80755080318550FD9075608D0
:100072000318560FDA0757080318570FDB0725280E
:100082005408D80755080318550FD90756080318FE
:0E009200560FDA0757080318570FDB07080050
:0C00A000831223088A0022088200080056
:1000AC0083122E08A4002F08A500A601A701013079
:0400BC00AB0008008D
:1000C00083120313D801D9011030DC00510DD80D73
:1000D000D90D5408D8025508031C550FD90203182E
:1000E00078285408D80755080318550FD907031066
:0A00F000D00DD10DDC0B66280800CE
:1000FA0050208A110A128000840AA20A0319A30A4C
:08010A00D003031D7D2808004D
:1001120083122B08031D92280130AE000030AF007D
:1001220056202408D0002508D1002608D20027082E
:10013200D3006D30D4004E30D500C630D6004130E9
:10014200D70019203930D5003030D600D701D80178
:100152005008D50751080318510FD6075208031843
:10016200520FD70753080318530FD8075708D00068
:100172005808D1000030D81BFF30D200D300FF3026
:10018200D0057F30D1050030D205D3055008A40038
:0E0192005108A5005208A6005308A700080057
:1001A0008312A0010A30A1000730990083169F0135
:1001B00008308500FF30831285040330DB008A306D
:1001C000DC005530DD00DD0BE328DC0BE328DB0B26
:1001D000E32800000000850183160C14C0308B0456
:1001E0000630AA002A08003C031821290530831292
:1001F00085004E30DC00EB30DD00DD0BFD28DC0B34
:10020000FD28033085004E30DC00EB30DD00DD0BD7
:100210000729DC0B0729113085004E30DC00EB305C
:10022000DD00DD0B1129DC0B1129213085004E305A
:10023000DC00EB30DD00DD0B1B29DC0B1B29AA03E6
:10024000F228831285018230DC00DD30DD00DD0B19
:100250002729DC0B27290000000089205008A8006E
:100260005108A9000A30D4000030D5006020580899
:10027000D0005908D1005008A8005108A900510821
:10028000003C031D45295008063C031C2D29003065
:100290002902031D4D2901302802031C2D2900309D
:1002A0002906031D552901302806031D592901304F
:1002B000850000302906031D5F2902302806031D32
:1002C00063290430850000302906031D69290330A5
:1002D0002806031D6D290530850000302906031D01
:1002E000732904302806031D772914308500003057
:1002F0002906031D7D2905302806031D8229831246
:100300001530850000302906031D8829063028068F
:10031000031D8D298312343085008230DC00DD30EE
:10032000DD008312DD0B9129DC0B91290000000018
:100330008F018E013530900083128519A129031495
:10034000A2290310031CB22921082002031CB12991
:10035000A001C83085050830831696008B15630010
:1003600096019C29A001831210108B11F028B72947
:02400E00D431AB
:00000001FF
